{
  "contractName": "Dex",
  "abi": [
    {
      "inputs": [],
      "stateMutability": "nonpayable",
      "type": "constructor"
    },
    {
      "anonymous": false,
      "inputs": [
        {
          "indexed": false,
          "internalType": "uint256",
          "name": "tradeId",
          "type": "uint256"
        },
        {
          "indexed": false,
          "internalType": "uint256",
          "name": "orderId",
          "type": "uint256"
        },
        {
          "indexed": true,
          "internalType": "bytes32",
          "name": "ticker",
          "type": "bytes32"
        },
        {
          "indexed": true,
          "internalType": "address",
          "name": "trader1",
          "type": "address"
        },
        {
          "indexed": true,
          "internalType": "address",
          "name": "trader2",
          "type": "address"
        },
        {
          "indexed": false,
          "internalType": "uint256",
          "name": "amount",
          "type": "uint256"
        },
        {
          "indexed": false,
          "internalType": "uint256",
          "name": "price",
          "type": "uint256"
        },
        {
          "indexed": false,
          "internalType": "uint256",
          "name": "date",
          "type": "uint256"
        }
      ],
      "name": "NewTrade",
      "type": "event"
    },
    {
      "anonymous": false,
      "inputs": [
        {
          "indexed": true,
          "internalType": "address",
          "name": "previousOwner",
          "type": "address"
        },
        {
          "indexed": true,
          "internalType": "address",
          "name": "newOwner",
          "type": "address"
        }
      ],
      "name": "OwnershipTransferred",
      "type": "event"
    },
    {
      "inputs": [],
      "name": "nextOrderId",
      "outputs": [
        {
          "internalType": "uint256",
          "name": "",
          "type": "uint256"
        }
      ],
      "stateMutability": "view",
      "type": "function"
    },
    {
      "inputs": [],
      "name": "nextTradeId",
      "outputs": [
        {
          "internalType": "uint256",
          "name": "",
          "type": "uint256"
        }
      ],
      "stateMutability": "view",
      "type": "function"
    },
    {
      "inputs": [
        {
          "internalType": "bytes32",
          "name": "",
          "type": "bytes32"
        },
        {
          "internalType": "uint256",
          "name": "",
          "type": "uint256"
        },
        {
          "internalType": "uint256",
          "name": "",
          "type": "uint256"
        }
      ],
      "name": "orderBook",
      "outputs": [
        {
          "internalType": "uint256",
          "name": "id",
          "type": "uint256"
        },
        {
          "internalType": "address",
          "name": "trader",
          "type": "address"
        },
        {
          "internalType": "enum Dex.Side",
          "name": "side",
          "type": "uint8"
        },
        {
          "internalType": "bytes32",
          "name": "ticker",
          "type": "bytes32"
        },
        {
          "internalType": "uint256",
          "name": "amount",
          "type": "uint256"
        },
        {
          "internalType": "uint256",
          "name": "filled",
          "type": "uint256"
        },
        {
          "internalType": "uint256",
          "name": "price",
          "type": "uint256"
        },
        {
          "internalType": "uint256",
          "name": "date",
          "type": "uint256"
        }
      ],
      "stateMutability": "view",
      "type": "function"
    },
    {
      "inputs": [],
      "name": "owner",
      "outputs": [
        {
          "internalType": "address",
          "name": "",
          "type": "address"
        }
      ],
      "stateMutability": "view",
      "type": "function"
    },
    {
      "inputs": [],
      "name": "renounceOwnership",
      "outputs": [],
      "stateMutability": "nonpayable",
      "type": "function"
    },
    {
      "inputs": [
        {
          "internalType": "uint256",
          "name": "",
          "type": "uint256"
        }
      ],
      "name": "tokenList",
      "outputs": [
        {
          "internalType": "bytes32",
          "name": "",
          "type": "bytes32"
        }
      ],
      "stateMutability": "view",
      "type": "function"
    },
    {
      "inputs": [
        {
          "internalType": "bytes32",
          "name": "",
          "type": "bytes32"
        }
      ],
      "name": "tokens",
      "outputs": [
        {
          "internalType": "bytes32",
          "name": "ticker",
          "type": "bytes32"
        },
        {
          "internalType": "address",
          "name": "tokenAddress",
          "type": "address"
        }
      ],
      "stateMutability": "view",
      "type": "function"
    },
    {
      "inputs": [
        {
          "internalType": "address",
          "name": "",
          "type": "address"
        },
        {
          "internalType": "bytes32",
          "name": "",
          "type": "bytes32"
        }
      ],
      "name": "traderBalances",
      "outputs": [
        {
          "internalType": "uint256",
          "name": "",
          "type": "uint256"
        }
      ],
      "stateMutability": "view",
      "type": "function"
    },
    {
      "inputs": [
        {
          "internalType": "address",
          "name": "newOwner",
          "type": "address"
        }
      ],
      "name": "transferOwnership",
      "outputs": [],
      "stateMutability": "nonpayable",
      "type": "function"
    },
    {
      "inputs": [
        {
          "internalType": "bytes32",
          "name": "ticker",
          "type": "bytes32"
        },
        {
          "internalType": "address",
          "name": "tokenAddress",
          "type": "address"
        }
      ],
      "name": "addToken",
      "outputs": [],
      "stateMutability": "nonpayable",
      "type": "function"
    },
    {
      "inputs": [
        {
          "internalType": "uint256",
          "name": "amount",
          "type": "uint256"
        },
        {
          "internalType": "bytes32",
          "name": "ticker",
          "type": "bytes32"
        }
      ],
      "name": "deposit",
      "outputs": [],
      "stateMutability": "nonpayable",
      "type": "function"
    },
    {
      "inputs": [
        {
          "internalType": "uint256",
          "name": "amount",
          "type": "uint256"
        },
        {
          "internalType": "bytes32",
          "name": "ticker",
          "type": "bytes32"
        }
      ],
      "name": "withdraw",
      "outputs": [],
      "stateMutability": "nonpayable",
      "type": "function"
    },
    {
      "inputs": [
        {
          "internalType": "bytes32",
          "name": "ticker",
          "type": "bytes32"
        },
        {
          "internalType": "uint256",
          "name": "amount",
          "type": "uint256"
        },
        {
          "internalType": "uint256",
          "name": "price",
          "type": "uint256"
        },
        {
          "internalType": "enum Dex.Side",
          "name": "side",
          "type": "uint8"
        }
      ],
      "name": "createLimitOrder",
      "outputs": [],
      "stateMutability": "nonpayable",
      "type": "function"
    },
    {
      "inputs": [
        {
          "internalType": "bytes32",
          "name": "ticker",
          "type": "bytes32"
        },
        {
          "internalType": "uint256",
          "name": "amount",
          "type": "uint256"
        },
        {
          "internalType": "enum Dex.Side",
          "name": "side",
          "type": "uint8"
        }
      ],
      "name": "createMarketOrder",
      "outputs": [],
      "stateMutability": "nonpayable",
      "type": "function"
    },
    {
      "inputs": [
        {
          "internalType": "bytes32",
          "name": "ticker",
          "type": "bytes32"
        },
        {
          "internalType": "enum Dex.Side",
          "name": "side",
          "type": "uint8"
        }
      ],
      "name": "getOrders",
      "outputs": [
        {
          "components": [
            {
              "internalType": "uint256",
              "name": "id",
              "type": "uint256"
            },
            {
              "internalType": "address",
              "name": "trader",
              "type": "address"
            },
            {
              "internalType": "enum Dex.Side",
              "name": "side",
              "type": "uint8"
            },
            {
              "internalType": "bytes32",
              "name": "ticker",
              "type": "bytes32"
            },
            {
              "internalType": "uint256",
              "name": "amount",
              "type": "uint256"
            },
            {
              "internalType": "uint256",
              "name": "filled",
              "type": "uint256"
            },
            {
              "internalType": "uint256",
              "name": "price",
              "type": "uint256"
            },
            {
              "internalType": "uint256",
              "name": "date",
              "type": "uint256"
            }
          ],
          "internalType": "struct Dex.Order[]",
          "name": "",
          "type": "tuple[]"
        }
      ],
      "stateMutability": "view",
      "type": "function"
    },
    {
      "inputs": [],
      "name": "getTokens",
      "outputs": [
        {
          "components": [
            {
              "internalType": "bytes32",
              "name": "ticker",
              "type": "bytes32"
            },
            {
              "internalType": "address",
              "name": "tokenAddress",
              "type": "address"
            }
          ],
          "internalType": "struct Dex.Token[]",
          "name": "",
          "type": "tuple[]"
        }
      ],
      "stateMutability": "view",
      "type": "function"
    }
  ],
  "bytecode": "0x60806040523480156200001157600080fd5b50600062000024620000c860201b60201c565b9050806000806101000a81548173ffffffffffffffffffffffffffffffffffffffff021916908373ffffffffffffffffffffffffffffffffffffffff1602179055508073ffffffffffffffffffffffffffffffffffffffff16600073ffffffffffffffffffffffffffffffffffffffff167f8be0079c531659141344cd1fd0a4f28419497f9722a3daafe3b4186f6b6457e060405160405180910390a350620000d0565b600033905090565b613be480620000e06000396000f3fe608060405234801561001057600080fd5b50600436106101005760003560e01c8063904194a311610097578063aa6ca80811610066578063aa6ca808146102b5578063c9630cb0146102d3578063d9c0c950146102ef578063f2fde38b1461030b57610100565b8063904194a31461021c5780639776aacf1461024d5780639ead722214610269578063a8d2021a1461029957610100565b806372ce957e116100d357806372ce957e146101945780637f2c6246146101c4578063813ad083146101e05780638da5cb5b146101fe57610100565b80630bb431b6146101055780632a58b3301461013c57806346e9658b1461015a578063715018a61461018a575b600080fd5b61011f600480360381019061011a919061307d565b610327565b6040516101339897969594939291906137ae565b60405180910390f35b6101446103c6565b6040516101519190613793565b60405180910390f35b610174600480360381019061016f9190612ff2565b6103cc565b604051610181919061362b565b60405180910390f35b6101926105a2565b005b6101ae60048036038101906101a99190612f28565b6106dc565b6040516101bb9190613793565b60405180910390f35b6101de60048036038101906101d9919061302e565b610701565b005b6101e86118d8565b6040516101f59190613793565b60405180910390f35b6102066118de565b60405161021391906135b0565b60405180910390f35b61023660048036038101906102319190612f8d565b611907565b60405161024492919061368a565b60405180910390f35b61026760048036038101906102629190612fb6565b61194b565b005b610283600480360381019061027e919061312f565b611a86565b604051610290919061366f565b60405180910390f35b6102b360048036038101906102ae9190613158565b611aaa565b005b6102bd611d14565b6040516102ca919061364d565b60405180910390f35b6102ed60048036038101906102e89190613158565b611f13565b005b610309600480360381019061030491906130cc565b6120ec565b005b61032560048036038101906103209190612eff565b612cb2565b005b6004602052826000526040600020602052816000526040600020818154811061034f57600080fd5b906000526020600020906007020160009250925050508060000154908060010160009054906101000a900473ffffffffffffffffffffffffffffffffffffffff16908060010160149054906101000a900460ff16908060020154908060030154908060040154908060050154908060060154905088565b60055481565b606060046000848152602001908152602001600020600083600181111561041c577f4e487b7100000000000000000000000000000000000000000000000000000000600052602160045260246000fd5b8152602001908152602001600020805480602002602001604051908101604052809291908181526020016000905b82821015610596578382906000526020600020906007020160405180610100016040529081600082015481526020016001820160009054906101000a900473ffffffffffffffffffffffffffffffffffffffff1673ffffffffffffffffffffffffffffffffffffffff1673ffffffffffffffffffffffffffffffffffffffff1681526020016001820160149054906101000a900460ff166001811115610519577f4e487b7100000000000000000000000000000000000000000000000000000000600052602160045260246000fd5b6001811115610551577f4e487b7100000000000000000000000000000000000000000000000000000000600052602160045260246000fd5b8152602001600282015481526020016003820154815260200160048201548152602001600582015481526020016006820154815250508152602001906001019061044a565b50505050905092915050565b6105aa612e5b565b73ffffffffffffffffffffffffffffffffffffffff166105c86118de565b73ffffffffffffffffffffffffffffffffffffffff161461061e576040517f08c379a0000000000000000000000000000000000000000000000000000000008152600401610615906136f3565b60405180910390fd5b600073ffffffffffffffffffffffffffffffffffffffff1660008054906101000a900473ffffffffffffffffffffffffffffffffffffffff1673ffffffffffffffffffffffffffffffffffffffff167f8be0079c531659141344cd1fd0a4f28419497f9722a3daafe3b4186f6b6457e060405160405180910390a360008060006101000a81548173ffffffffffffffffffffffffffffffffffffffff021916908373ffffffffffffffffffffffffffffffffffffffff160217905550565b6003602052816000526040600020602052806000526040600020600091509150505481565b82600073ffffffffffffffffffffffffffffffffffffffff166001600083815260200190815260200160002060010160009054906101000a900473ffffffffffffffffffffffffffffffffffffffff1673ffffffffffffffffffffffffffffffffffffffff1614156107a8576040517f08c379a000000000000000000000000000000000000000000000000000000000815260040161079f90613773565b60405180910390fd5b837f444149000000000000000000000000000000000000000000000000000000000081141561080c576040517f08c379a000000000000000000000000000000000000000000000000000000000815260040161080390613753565b60405180910390fd5b600180811115610845577f4e487b7100000000000000000000000000000000000000000000000000000000600052602160045260246000fd5b83600181111561087e577f4e487b7100000000000000000000000000000000000000000000000000000000600052602160045260246000fd5b14156109185783600360003373ffffffffffffffffffffffffffffffffffffffff1673ffffffffffffffffffffffffffffffffffffffff1681526020019081526020016000206000878152602001908152602001600020541015610917576040517f08c379a000000000000000000000000000000000000000000000000000000000815260040161090e90613713565b60405180910390fd5b5b6000600460008781526020019081526020016000206000806001811115610968577f4e487b7100000000000000000000000000000000000000000000000000000000600052602160045260246000fd5b8660018111156109a1577f4e487b7100000000000000000000000000000000000000000000000000000000600052602160045260246000fd5b146109ad5760006109b0565b60015b60018111156109e8577f4e487b7100000000000000000000000000000000000000000000000000000000600052602160045260246000fd5b815260200190815260200160002090506000808690505b828054905082108015610a125750600081115b15611587576000838381548110610a52577f4e487b7100000000000000000000000000000000000000000000000000000000600052603260045260246000fd5b906000526020600020906007020160040154848481548110610a9d577f4e487b7100000000000000000000000000000000000000000000000000000000600052603260045260246000fd5b906000526020600020906007020160030154610ab991906139b2565b90506000818311610aca5782610acc565b815b90508083610ada91906139b2565b925080858581548110610b16577f4e487b7100000000000000000000000000000000000000000000000000000000600052603260045260246000fd5b90600052602060002090600702016004016000828254610b369190613902565b925050819055503373ffffffffffffffffffffffffffffffffffffffff16858581548110610b8d577f4e487b7100000000000000000000000000000000000000000000000000000000600052603260045260246000fd5b906000526020600020906007020160010160009054906101000a900473ffffffffffffffffffffffffffffffffffffffff1673ffffffffffffffffffffffffffffffffffffffff168b7fdb0c486e680ba8026643e6a85f8d157b5e7bcd4b32b54d564542570a9eb20416600654898981548110610c33577f4e487b7100000000000000000000000000000000000000000000000000000000600052603260045260246000fd5b906000526020600020906007020160000154868b8b81548110610c7f577f4e487b7100000000000000000000000000000000000000000000000000000000600052603260045260246000fd5b90600052602060002090600702016005015442604051610ca395949392919061382c565b60405180910390a4600180811115610ce4577f4e487b7100000000000000000000000000000000000000000000000000000000600052602160045260246000fd5b886001811115610d1d577f4e487b7100000000000000000000000000000000000000000000000000000000600052602160045260246000fd5b141561107e5780600360003373ffffffffffffffffffffffffffffffffffffffff1673ffffffffffffffffffffffffffffffffffffffff16815260200190815260200160002060008c81526020019081526020016000206000828254610d8391906139b2565b92505081905550848481548110610dc3577f4e487b7100000000000000000000000000000000000000000000000000000000600052603260045260246000fd5b90600052602060002090600702016005015481610de09190613958565b600360003373ffffffffffffffffffffffffffffffffffffffff1673ffffffffffffffffffffffffffffffffffffffff16815260200190815260200160002060007f444149000000000000000000000000000000000000000000000000000000000081526020019081526020016000206000828254610e5f9190613902565b925050819055508060036000878781548110610ea4577f4e487b7100000000000000000000000000000000000000000000000000000000600052603260045260246000fd5b906000526020600020906007020160010160009054906101000a900473ffffffffffffffffffffffffffffffffffffffff1673ffffffffffffffffffffffffffffffffffffffff1673ffffffffffffffffffffffffffffffffffffffff16815260200190815260200160002060008c81526020019081526020016000206000828254610f309190613902565b92505081905550848481548110610f70577f4e487b7100000000000000000000000000000000000000000000000000000000600052603260045260246000fd5b90600052602060002090600702016005015481610f8d9190613958565b60036000878781548110610fca577f4e487b7100000000000000000000000000000000000000000000000000000000600052603260045260246000fd5b906000526020600020906007020160010160009054906101000a900473ffffffffffffffffffffffffffffffffffffffff1673ffffffffffffffffffffffffffffffffffffffff1673ffffffffffffffffffffffffffffffffffffffff16815260200190815260200160002060007f44414900000000000000000000000000000000000000000000000000000000008152602001908152602001600020600082825461107691906139b2565b925050819055505b600060018111156110b8577f4e487b7100000000000000000000000000000000000000000000000000000000600052602160045260246000fd5b8860018111156110f1577f4e487b7100000000000000000000000000000000000000000000000000000000600052602160045260246000fd5b141561155a57848481548110611130577f4e487b7100000000000000000000000000000000000000000000000000000000600052603260045260246000fd5b9060005260206000209060070201600501548161114d9190613958565b600360003373ffffffffffffffffffffffffffffffffffffffff1673ffffffffffffffffffffffffffffffffffffffff16815260200190815260200160002060007f444149000000000000000000000000000000000000000000000000000000000081526020019081526020016000205410156111ff576040517f08c379a00000000000000000000000000000000000000000000000000000000081526004016111f690613733565b60405180910390fd5b80600360003373ffffffffffffffffffffffffffffffffffffffff1673ffffffffffffffffffffffffffffffffffffffff16815260200190815260200160002060008c8152602001908152602001600020600082825461125f9190613902565b9250508190555084848154811061129f577f4e487b7100000000000000000000000000000000000000000000000000000000600052603260045260246000fd5b906000526020600020906007020160050154816112bc9190613958565b600360003373ffffffffffffffffffffffffffffffffffffffff1673ffffffffffffffffffffffffffffffffffffffff16815260200190815260200160002060007f44414900000000000000000000000000000000000000000000000000000000008152602001908152602001600020600082825461133b91906139b2565b925050819055508060036000878781548110611380577f4e487b7100000000000000000000000000000000000000000000000000000000600052603260045260246000fd5b906000526020600020906007020160010160009054906101000a900473ffffffffffffffffffffffffffffffffffffffff1673ffffffffffffffffffffffffffffffffffffffff1673ffffffffffffffffffffffffffffffffffffffff16815260200190815260200160002060008c8152602001908152602001600020600082825461140c91906139b2565b9250508190555084848154811061144c577f4e487b7100000000000000000000000000000000000000000000000000000000600052603260045260246000fd5b906000526020600020906007020160050154816114699190613958565b600360008787815481106114a6577f4e487b7100000000000000000000000000000000000000000000000000000000600052603260045260246000fd5b906000526020600020906007020160010160009054906101000a900473ffffffffffffffffffffffffffffffffffffffff1673ffffffffffffffffffffffffffffffffffffffff1673ffffffffffffffffffffffffffffffffffffffff16815260200190815260200160002060007f4441490000000000000000000000000000000000000000000000000000000000815260200190815260200160002060008282546115529190613902565b925050819055505b6006600081548092919061156d90613a87565b9190505550838061157d90613a87565b94505050506109ff565b600091505b82805490508210801561163257508282815481106115d3577f4e487b7100000000000000000000000000000000000000000000000000000000600052603260045260246000fd5b90600052602060002090600702016003015483838154811061161e577f4e487b7100000000000000000000000000000000000000000000000000000000600052603260045260246000fd5b906000526020600020906007020160040154145b156118ce5760008290505b83805490508110156117ff57836001826116579190613902565b8154811061168e577f4e487b7100000000000000000000000000000000000000000000000000000000600052603260045260246000fd5b90600052602060002090600702018482815481106116d5577f4e487b7100000000000000000000000000000000000000000000000000000000600052603260045260246000fd5b9060005260206000209060070201600082015481600001556001820160009054906101000a900473ffffffffffffffffffffffffffffffffffffffff168160010160006101000a81548173ffffffffffffffffffffffffffffffffffffffff021916908373ffffffffffffffffffffffffffffffffffffffff1602179055506001820160149054906101000a900460ff168160010160146101000a81548160ff021916908360018111156117b2577f4e487b7100000000000000000000000000000000000000000000000000000000600052602160045260246000fd5b0217905550600282015481600201556003820154816003015560048201548160040155600582015481600501556006820154816006015590505080806117f790613a87565b91505061163d565b5082805480611837577f4e487b7100000000000000000000000000000000000000000000000000000000600052603160045260246000fd5b60019003818190600052602060002090600702016000808201600090556001820160006101000a81549073ffffffffffffffffffffffffffffffffffffffff02191690556001820160146101000a81549060ff0219169055600282016000905560038201600090556004820160009055600582016000905560068201600090555050905581806118c690613a87565b92505061158c565b5050505050505050565b60065481565b60008060009054906101000a900473ffffffffffffffffffffffffffffffffffffffff16905090565b60016020528060005260406000206000915090508060000154908060010160009054906101000a900473ffffffffffffffffffffffffffffffffffffffff16905082565b611953612e5b565b73ffffffffffffffffffffffffffffffffffffffff166119716118de565b73ffffffffffffffffffffffffffffffffffffffff16146119c7576040517f08c379a00000000000000000000000000000000000000000000000000000000081526004016119be906136f3565b60405180910390fd5b60405180604001604052808381526020018273ffffffffffffffffffffffffffffffffffffffff16815250600160008481526020019081526020016000206000820151816000015560208201518160010160006101000a81548173ffffffffffffffffffffffffffffffffffffffff021916908373ffffffffffffffffffffffffffffffffffffffff16021790555090505060028290806001815401808255809150506001900390600052602060002001600090919091909150555050565b60028181548110611a9657600080fd5b906000526020600020016000915090505481565b80600073ffffffffffffffffffffffffffffffffffffffff166001600083815260200190815260200160002060010160009054906101000a900473ffffffffffffffffffffffffffffffffffffffff1673ffffffffffffffffffffffffffffffffffffffff161415611b51576040517f08c379a0000000000000000000000000000000000000000000000000000000008152600401611b4890613773565b60405180910390fd5b600360003373ffffffffffffffffffffffffffffffffffffffff1673ffffffffffffffffffffffffffffffffffffffff168152602001908152602001600020600083815260200190815260200160002054831115611be4576040517f08c379a0000000000000000000000000000000000000000000000000000000008152600401611bdb906136d3565b60405180910390fd5b82600360003373ffffffffffffffffffffffffffffffffffffffff1673ffffffffffffffffffffffffffffffffffffffff16815260200190815260200160002060008481526020019081526020016000206000828254611c4491906139b2565b925050819055506001600083815260200190815260200160002060010160009054906101000a900473ffffffffffffffffffffffffffffffffffffffff1673ffffffffffffffffffffffffffffffffffffffff1663a9059cbb33856040518363ffffffff1660e01b8152600401611cbc929190613602565b602060405180830381600087803b158015611cd657600080fd5b505af1158015611cea573d6000803e3d6000fd5b505050506040513d601f19601f82011682018060405250810190611d0e9190612f64565b50505050565b6060600060028054905067ffffffffffffffff811115611d5d577f4e487b7100000000000000000000000000000000000000000000000000000000600052604160045260246000fd5b604051908082528060200260200182016040528015611d9657816020015b611d83612e63565b815260200190600190039081611d7b5790505b50905060005b6001600280549050611dae91906139b2565b811015611f0b5760405180604001604052806001600060028581548110611dfe577f4e487b7100000000000000000000000000000000000000000000000000000000600052603260045260246000fd5b906000526020600020015481526020019081526020016000206000015481526020016001600060028581548110611e5e577f4e487b7100000000000000000000000000000000000000000000000000000000600052603260045260246000fd5b9060005260206000200154815260200190815260200160002060010160009054906101000a900473ffffffffffffffffffffffffffffffffffffffff1673ffffffffffffffffffffffffffffffffffffffff16815250828281518110611eed577f4e487b7100000000000000000000000000000000000000000000000000000000600052603260045260246000fd5b60200260200101819052508080611f0390613a87565b915050611d9c565b508091505090565b80600073ffffffffffffffffffffffffffffffffffffffff166001600083815260200190815260200160002060010160009054906101000a900473ffffffffffffffffffffffffffffffffffffffff1673ffffffffffffffffffffffffffffffffffffffff161415611fba576040517f08c379a0000000000000000000000000000000000000000000000000000000008152600401611fb190613773565b60405180910390fd5b6001600083815260200190815260200160002060010160009054906101000a900473ffffffffffffffffffffffffffffffffffffffff1673ffffffffffffffffffffffffffffffffffffffff166323b872dd3330866040518463ffffffff1660e01b815260040161202d939291906135cb565b602060405180830381600087803b15801561204757600080fd5b505af115801561205b573d6000803e3d6000fd5b505050506040513d601f19601f8201168201806040525081019061207f9190612f64565b5082600360003373ffffffffffffffffffffffffffffffffffffffff1673ffffffffffffffffffffffffffffffffffffffff168152602001908152602001600020600084815260200190815260200160002060008282546120e09190613902565b92505081905550505050565b83600073ffffffffffffffffffffffffffffffffffffffff166001600083815260200190815260200160002060010160009054906101000a900473ffffffffffffffffffffffffffffffffffffffff1673ffffffffffffffffffffffffffffffffffffffff161415612193576040517f08c379a000000000000000000000000000000000000000000000000000000000815260040161218a90613773565b60405180910390fd5b847f44414900000000000000000000000000000000000000000000000000000000008114156121f7576040517f08c379a00000000000000000000000000000000000000000000000000000000081526004016121ee90613753565b60405180910390fd5b600180811115612230577f4e487b7100000000000000000000000000000000000000000000000000000000600052602160045260246000fd5b836001811115612269577f4e487b7100000000000000000000000000000000000000000000000000000000600052602160045260246000fd5b14156123075784600360003373ffffffffffffffffffffffffffffffffffffffff1673ffffffffffffffffffffffffffffffffffffffff1681526020019081526020016000206000888152602001908152602001600020541015612302576040517f08c379a00000000000000000000000000000000000000000000000000000000081526004016122f990613713565b60405180910390fd5b6123c6565b83856123139190613958565b600360003373ffffffffffffffffffffffffffffffffffffffff1673ffffffffffffffffffffffffffffffffffffffff16815260200190815260200160002060007f444149000000000000000000000000000000000000000000000000000000000081526020019081526020016000205410156123c5576040517f08c379a00000000000000000000000000000000000000000000000000000000081526004016123bc90613733565b60405180910390fd5b5b6000600460008881526020019081526020016000206000856001811115612416577f4e487b7100000000000000000000000000000000000000000000000000000000600052602160045260246000fd5b815260200190815260200160002090508060405180610100016040528060055481526020013373ffffffffffffffffffffffffffffffffffffffff168152602001866001811115612490577f4e487b7100000000000000000000000000000000000000000000000000000000600052602160045260246000fd5b8152602001898152602001888152602001600081526020018781526020014281525090806001815401808255809150506001900390600052602060002090600702016000909190919091506000820151816000015560208201518160010160006101000a81548173ffffffffffffffffffffffffffffffffffffffff021916908373ffffffffffffffffffffffffffffffffffffffff16021790555060408201518160010160146101000a81548160ff0219169083600181111561257d577f4e487b7100000000000000000000000000000000000000000000000000000000600052602160045260246000fd5b0217905550606082015181600201556080820151816003015560a0820151816004015560c0820151816005015560e0820151816006015550506000808280549050116125ca5760006125dc565b600182805490506125db91906139b2565b5b90505b6000811115612c905760006001811115612622577f4e487b7100000000000000000000000000000000000000000000000000000000600052602160045260246000fd5b85600181111561265b577f4e487b7100000000000000000000000000000000000000000000000000000000600052602160045260246000fd5b14801561270757508160018261267191906139b2565b815481106126a8577f4e487b7100000000000000000000000000000000000000000000000000000000600052603260045260246000fd5b9060005260206000209060070201600501548282815481106126f3577f4e487b7100000000000000000000000000000000000000000000000000000000600052603260045260246000fd5b906000526020600020906007020160050154105b1561271157612c90565b60018081111561274a577f4e487b7100000000000000000000000000000000000000000000000000000000600052602160045260246000fd5b856001811115612783577f4e487b7100000000000000000000000000000000000000000000000000000000600052602160045260246000fd5b14801561282f57508160018261279991906139b2565b815481106127d0577f4e487b7100000000000000000000000000000000000000000000000000000000600052603260045260246000fd5b90600052602060002090600702016005015482828154811061281b577f4e487b7100000000000000000000000000000000000000000000000000000000600052603260045260246000fd5b906000526020600020906007020160050154115b1561283957612c90565b60008260018361284991906139b2565b81548110612880577f4e487b7100000000000000000000000000000000000000000000000000000000600052603260045260246000fd5b906000526020600020906007020160405180610100016040529081600082015481526020016001820160009054906101000a900473ffffffffffffffffffffffffffffffffffffffff1673ffffffffffffffffffffffffffffffffffffffff1673ffffffffffffffffffffffffffffffffffffffff1681526020016001820160149054906101000a900460ff166001811115612945577f4e487b7100000000000000000000000000000000000000000000000000000000600052602160045260246000fd5b600181111561297d577f4e487b7100000000000000000000000000000000000000000000000000000000600052602160045260246000fd5b81526020016002820154815260200160038201548152602001600482015481526020016005820154815260200160068201548152505090508282815481106129ee577f4e487b7100000000000000000000000000000000000000000000000000000000600052603260045260246000fd5b906000526020600020906007020183600184612a0a91906139b2565b81548110612a41577f4e487b7100000000000000000000000000000000000000000000000000000000600052603260045260246000fd5b9060005260206000209060070201600082015481600001556001820160009054906101000a900473ffffffffffffffffffffffffffffffffffffffff168160010160006101000a81548173ffffffffffffffffffffffffffffffffffffffff021916908373ffffffffffffffffffffffffffffffffffffffff1602179055506001820160149054906101000a900460ff168160010160146101000a81548160ff02191690836001811115612b1e577f4e487b7100000000000000000000000000000000000000000000000000000000600052602160045260246000fd5b0217905550600282015481600201556003820154816003015560048201548160040155600582015481600501556006820154816006015590505080838381548110612b92577f4e487b7100000000000000000000000000000000000000000000000000000000600052603260045260246000fd5b90600052602060002090600702016000820151816000015560208201518160010160006101000a81548173ffffffffffffffffffffffffffffffffffffffff021916908373ffffffffffffffffffffffffffffffffffffffff16021790555060408201518160010160146101000a81548160ff02191690836001811115612c42577f4e487b7100000000000000000000000000000000000000000000000000000000600052602160045260246000fd5b0217905550606082015181600201556080820151816003015560a0820151816004015560c0820151816005015560e082015181600601559050508180612c8790613a5d565b925050506125df565b60056000815480929190612ca390613a87565b91905055505050505050505050565b612cba612e5b565b73ffffffffffffffffffffffffffffffffffffffff16612cd86118de565b73ffffffffffffffffffffffffffffffffffffffff1614612d2e576040517f08c379a0000000000000000000000000000000000000000000000000000000008152600401612d25906136f3565b60405180910390fd5b600073ffffffffffffffffffffffffffffffffffffffff168173ffffffffffffffffffffffffffffffffffffffff161415612d9e576040517f08c379a0000000000000000000000000000000000000000000000000000000008152600401612d95906136b3565b60405180910390fd5b8073ffffffffffffffffffffffffffffffffffffffff1660008054906101000a900473ffffffffffffffffffffffffffffffffffffffff1673ffffffffffffffffffffffffffffffffffffffff167f8be0079c531659141344cd1fd0a4f28419497f9722a3daafe3b4186f6b6457e060405160405180910390a3806000806101000a81548173ffffffffffffffffffffffffffffffffffffffff021916908373ffffffffffffffffffffffffffffffffffffffff16021790555050565b600033905090565b604051806040016040528060008019168152602001600073ffffffffffffffffffffffffffffffffffffffff1681525090565b600081359050612ea581613b42565b92915050565b600081519050612eba81613b59565b92915050565b600081359050612ecf81613b70565b92915050565b600081359050612ee481613b87565b92915050565b600081359050612ef981613b97565b92915050565b600060208284031215612f1157600080fd5b6000612f1f84828501612e96565b91505092915050565b60008060408385031215612f3b57600080fd5b6000612f4985828601612e96565b9250506020612f5a85828601612ec0565b9150509250929050565b600060208284031215612f7657600080fd5b6000612f8484828501612eab565b91505092915050565b600060208284031215612f9f57600080fd5b6000612fad84828501612ec0565b91505092915050565b60008060408385031215612fc957600080fd5b6000612fd785828601612ec0565b9250506020612fe885828601612e96565b9150509250929050565b6000806040838503121561300557600080fd5b600061301385828601612ec0565b925050602061302485828601612ed5565b9150509250929050565b60008060006060848603121561304357600080fd5b600061305186828701612ec0565b935050602061306286828701612eea565b925050604061307386828701612ed5565b9150509250925092565b60008060006060848603121561309257600080fd5b60006130a086828701612ec0565b93505060206130b186828701612eea565b92505060406130c286828701612eea565b9150509250925092565b600080600080608085870312156130e257600080fd5b60006130f087828801612ec0565b945050602061310187828801612eea565b935050604061311287828801612eea565b925050606061312387828801612ed5565b91505092959194509250565b60006020828403121561314157600080fd5b600061314f84828501612eea565b91505092915050565b6000806040838503121561316b57600080fd5b600061317985828601612eea565b925050602061318a85828601612ec0565b9150509250929050565b60006131a083836134c1565b6101008301905092915050565b60006131b98383613563565b60408301905092915050565b6131ce816139e6565b82525050565b6131dd816139e6565b82525050565b60006131ee8261389f565b6131f881856138cf565b93506132038361387f565b8060005b8381101561323457815161321b8882613194565b9750613226836138b5565b925050600181019050613207565b5085935050505092915050565b600061324c826138aa565b61325681856138e0565b93506132618361388f565b8060005b8381101561329257815161327988826131ad565b9750613284836138c2565b925050600181019050613265565b5085935050505092915050565b6132a881613a04565b82525050565b6132b781613a04565b82525050565b6132c681613a4b565b82525050565b6132d581613a4b565b82525050565b60006132e86026836138f1565b91507f4f776e61626c653a206e6577206f776e657220697320746865207a65726f206160008301527f64647265737300000000000000000000000000000000000000000000000000006020830152604082019050919050565b600061334e600f836138f1565b91507f62616c616e636520746f6f206c6f7700000000000000000000000000000000006000830152602082019050919050565b600061338e6020836138f1565b91507f4f776e61626c653a2063616c6c6572206973206e6f7420746865206f776e65726000830152602082019050919050565b60006133ce6015836138f1565b91507f746f6b656e2062616c616e636520746f6f206c6f7700000000000000000000006000830152602082019050919050565b600061340e6013836138f1565b91507f6461692062616c616e636520746f6f206c6f77000000000000000000000000006000830152602082019050919050565b600061344e6011836138f1565b91507f63616e206e6f74207472616465204441490000000000000000000000000000006000830152602082019050919050565b600061348e6019836138f1565b91507f7468697320746f6b656e20646f6573206e6f74206578697374000000000000006000830152602082019050919050565b610100820160008201516134d86000850182613592565b5060208201516134eb60208501826131c5565b5060408201516134fe60408501826132bd565b506060820151613511606085018261329f565b5060808201516135246080850182613592565b5060a082015161353760a0850182613592565b5060c082015161354a60c0850182613592565b5060e082015161355d60e0850182613592565b50505050565b604082016000820151613579600085018261329f565b50602082015161358c60208501826131c5565b50505050565b61359b81613a41565b82525050565b6135aa81613a41565b82525050565b60006020820190506135c560008301846131d4565b92915050565b60006060820190506135e060008301866131d4565b6135ed60208301856131d4565b6135fa60408301846135a1565b949350505050565b600060408201905061361760008301856131d4565b61362460208301846135a1565b9392505050565b6000602082019050818103600083015261364581846131e3565b905092915050565b600060208201905081810360008301526136678184613241565b905092915050565b600060208201905061368460008301846132ae565b92915050565b600060408201905061369f60008301856132ae565b6136ac60208301846131d4565b9392505050565b600060208201905081810360008301526136cc816132db565b9050919050565b600060208201905081810360008301526136ec81613341565b9050919050565b6000602082019050818103600083015261370c81613381565b9050919050565b6000602082019050818103600083015261372c816133c1565b9050919050565b6000602082019050818103600083015261374c81613401565b9050919050565b6000602082019050818103600083015261376c81613441565b9050919050565b6000602082019050818103600083015261378c81613481565b9050919050565b60006020820190506137a860008301846135a1565b92915050565b6000610100820190506137c4600083018b6135a1565b6137d1602083018a6131d4565b6137de60408301896132cc565b6137eb60608301886132ae565b6137f860808301876135a1565b61380560a08301866135a1565b61381260c08301856135a1565b61381f60e08301846135a1565b9998505050505050505050565b600060a08201905061384160008301886135a1565b61384e60208301876135a1565b61385b60408301866135a1565b61386860608301856135a1565b61387560808301846135a1565b9695505050505050565b6000819050602082019050919050565b6000819050602082019050919050565b600081519050919050565b600081519050919050565b6000602082019050919050565b6000602082019050919050565b600082825260208201905092915050565b600082825260208201905092915050565b600082825260208201905092915050565b600061390d82613a41565b915061391883613a41565b9250827fffffffffffffffffffffffffffffffffffffffffffffffffffffffffffffffff0382111561394d5761394c613ad0565b5b828201905092915050565b600061396382613a41565b915061396e83613a41565b9250817fffffffffffffffffffffffffffffffffffffffffffffffffffffffffffffffff04831182151516156139a7576139a6613ad0565b5b828202905092915050565b60006139bd82613a41565b91506139c883613a41565b9250828210156139db576139da613ad0565b5b828203905092915050565b60006139f182613a21565b9050919050565b60008115159050919050565b6000819050919050565b6000819050613a1c82613b2e565b919050565b600073ffffffffffffffffffffffffffffffffffffffff82169050919050565b6000819050919050565b6000613a5682613a0e565b9050919050565b6000613a6882613a41565b91506000821415613a7c57613a7b613ad0565b5b600182039050919050565b6000613a9282613a41565b91507fffffffffffffffffffffffffffffffffffffffffffffffffffffffffffffffff821415613ac557613ac4613ad0565b5b600182019050919050565b7f4e487b7100000000000000000000000000000000000000000000000000000000600052601160045260246000fd5b7f4e487b7100000000000000000000000000000000000000000000000000000000600052602160045260246000fd5b60028110613b3f57613b3e613aff565b5b50565b613b4b816139e6565b8114613b5657600080fd5b50565b613b62816139f8565b8114613b6d57600080fd5b50565b613b7981613a04565b8114613b8457600080fd5b50565b60028110613b9457600080fd5b50565b613ba081613a41565b8114613bab57600080fd5b5056fea2646970667358221220c210f992d7c4c425d7d8b7fa631b98a50bf943402d7be6fe52d2a7fe9cf0f51264736f6c63430008000033",
  "immutableReferences": {},
  "source": "// SPDX-License-Identifier: MIT\n/// @title Decentralized Exchange\n/// @author MikaTrust\n/// @notice For education only !\n/// @dev By default, the owner of an Ownable contract is the account that deployed it\n/// @dev Solidity 0.8.0, no need to import OpenZeppelin SafeMath anymore\n\npragma solidity ^0.8.0;\n\nimport \"@openzeppelin/contracts/access/Ownable.sol\";\nimport \"@openzeppelin/contracts/token/ERC20/IERC20.sol\";\n\ncontract Dex is Ownable {\n\n    enum Side {\n        BUY,\n        SELL\n    }\n\n    struct Token {\n        bytes32 ticker;\n        address tokenAddress;\n    }\n\n    struct Order {\n        uint id;\n        address trader;\n        Side side;\n        bytes32 ticker;\n        uint amount;\n        uint filled;\n        uint price;\n        uint date;\n    }\n\n    mapping (bytes32 => Token) public tokens;\n    bytes32[] public tokenList;\n    mapping (address => mapping(bytes32 => uint)) public traderBalances;\n    mapping (bytes32 => mapping ( uint => Order[])) public orderBook;\n    uint public nextOrderId;\n    uint public nextTradeId;\n    bytes32 constant DAI = bytes32('DAI');\n\n    event NewTrade (\n        uint tradeId,\n        uint orderId,\n        bytes32 indexed ticker,\n        address indexed trader1,\n        address indexed trader2,\n        uint amount,\n        uint price,\n        uint date\n    );\n\n    constructor() {}\n\n    function addToken (\n        bytes32 ticker,\n        address tokenAddress)\n        onlyOwner()\n        external {\n            tokens[ticker] = Token(ticker, tokenAddress);\n            tokenList.push(ticker);\n    }\n\n    function deposit (\n        uint amount,\n        bytes32 ticker)\n        tokenExists(ticker)\n        external {\n            IERC20(tokens[ticker].tokenAddress).transferFrom(\n                msg.sender, \n                address(this),\n                amount);\n            traderBalances[msg.sender][ticker] += amount;\n        }\n\n    function withdraw (\n        uint amount,\n        bytes32 ticker)\n        tokenExists(ticker)\n        external {\n            require (amount <= traderBalances[msg.sender][ticker], 'balance too low');\n            traderBalances[msg.sender][ticker] -= amount;\n            IERC20(tokens[ticker].tokenAddress).transfer(\n                msg.sender,\n                amount);\n        }\n\n    function createLimitOrder (\n        bytes32 ticker,\n        uint amount,\n        uint price,\n        Side side)\n        tokenExists(ticker)\n        tokenIsNotDai(ticker)\n        external {\n            if(side == Side.SELL){\n                require(traderBalances[msg.sender][ticker] >= amount,\n                'token balance too low'\n                );\n            } else {\n                require(traderBalances[msg.sender][DAI] >= amount * price,\n                'dai balance too low'\n                );\n\n            }\n\n            /*\n            struct Order {\n                uint id;\n                address trader;\n                Side side;\n                bytes32 ticker;\n                uint amount;\n                uint filled;\n                uint price;\n                uint date;\n            }\n            */\n\n            Order[] storage orders = orderBook[ticker][uint(side)];\n            orders.push(Order(\n                nextOrderId,\n                msg.sender,\n                side,\n                ticker,\n                amount,\n                uint(0),\n                price,\n                block.timestamp\n            )); \n\n            //Bubble sort\n            uint i = orders.length > 0 ? orders.length-1 : 0;\n            \n            while(i>0){\n                if(side == Side.BUY && orders[i].price < orders[i-1].price){\n                    break;\n                }\n\n                if(side == Side.SELL && orders[i].price > orders[i-1].price){\n                    break;\n                }\n                Order memory order = orders[i - 1];\n                orders[i - 1] = orders[i];\n                orders[i] = order;\n                i--;\n            }\n            \n            \n            nextOrderId++;\n\n    }\n\n    function createMarketOrder (\n        bytes32 ticker,\n        uint amount,\n        Side side)\n        tokenExists(ticker)\n        tokenIsNotDai(ticker)\n        external {\n            if(side == Side.SELL){\n                require(traderBalances[msg.sender][ticker] >= amount,\n                'token balance too low'\n                );\n            }\n            \n            Order[] storage orders = orderBook[ticker][uint(side == Side.BUY ? Side.SELL : Side.BUY)];\n            uint i;\n            uint remaining = amount;\n\n            while(i < orders.length && remaining > 0){\n                uint available = orders[i].amount - orders[i].filled;\n                uint matched = (remaining > available) ? available : remaining;\n                remaining -= matched;\n                orders[i].filled += matched;\n                emit NewTrade(\n                    nextTradeId, \n                    orders[i].id, \n                    ticker,\n                    orders[i].trader,\n                    msg.sender, \n                    matched, \n                    orders[i].price, \n                    block.timestamp\n                );\n\n                if(side == Side.SELL){\n                    traderBalances[msg.sender][ticker] -= matched;\n                    traderBalances[msg.sender][DAI] += matched * orders[i].price;\n                    traderBalances[orders[i].trader][ticker] += matched;\n                    traderBalances[orders[i].trader][DAI]  -= matched * orders[i].price;\n                }\n                if(side == Side.BUY){\n                    require(\n                        traderBalances[msg.sender][DAI] >= matched * orders[i].price,\n                        'dai balance too low'\n                    );\n                    traderBalances[msg.sender][ticker] += matched;\n                    traderBalances[msg.sender][DAI] -= matched * orders[i].price;\n                    traderBalances[orders[i].trader][ticker] -= matched;\n                    traderBalances[orders[i].trader][DAI] += matched * orders[i].price;\n                }\n                nextTradeId++;\n                i++;\n            }\n\n            //Clean the order book by removing filled order\n            i = 0;\n            while(i < orders.length && orders[i].filled == orders[i].amount){\n                for(uint j = i; j<orders.length; j++){\n                    orders[j] = orders [j + 1];\n                }\n                orders.pop();\n                i++; \n            }\n    }\n\n    function getOrders(\n        bytes32 ticker,\n        Side side)\n        external\n        view\n        returns(Order[] memory)\n        {\n            return orderBook[ticker][uint(side)];\n        }\n\n    function getTokens(\n    )\n        external\n        view\n        returns (Token[] memory)\n        {\n            Token[] memory _tokens = new Token[](tokenList.length);\n            for(uint i = 0; i < tokenList.length - 1; i++){\n                _tokens[i] = Token(\n                    tokens[tokenList[i]].ticker,\n                    tokens[tokenList[i]].tokenAddress\n                );\n\n            }\n            return _tokens;\n        }\n    \n    modifier tokenExists(bytes32 ticker){\n        require(tokens[ticker].tokenAddress != address(0), \n        'this token does not exist');\n        _;\n    }\n\n    modifier tokenIsNotDai(bytes32 ticker){\n        require(ticker != DAI,\n        'can not trade DAI');\n        _;\n    }  \n}\n\n",
  "sourcePath": "/Users/mikaelkais/projects/masterclass/dex/contracts/Dex.sol",
  "compiler": {
    "name": "solc",
    "version": "0.8.0+commit.c7dfd78e.Emscripten.clang"
  },
  "schemaVersion": "3.4.1",
  "updatedAt": "2021-06-25T09:09:31.186Z",
  "devdoc": {
    "kind": "dev",
    "methods": {
      "owner()": {
        "details": "Returns the address of the current owner."
      },
      "renounceOwnership()": {
        "details": "Leaves the contract without owner. It will not be possible to call `onlyOwner` functions anymore. Can only be called by the current owner. NOTE: Renouncing ownership will leave the contract without an owner, thereby removing any functionality that is only available to the owner."
      },
      "transferOwnership(address)": {
        "details": "Transfers ownership of the contract to a new account (`newOwner`). Can only be called by the current owner."
      }
    },
    "version": 1
  },
  "userdoc": {
    "kind": "user",
    "methods": {},
    "version": 1
  }
}