{
  "contractName": "Dex",
  "abi": [
    {
      "inputs": [],
      "stateMutability": "nonpayable",
      "type": "constructor"
    },
    {
      "anonymous": false,
      "inputs": [
        {
          "indexed": false,
          "internalType": "uint256",
          "name": "tradeId",
          "type": "uint256"
        },
        {
          "indexed": false,
          "internalType": "uint256",
          "name": "orderId",
          "type": "uint256"
        },
        {
          "indexed": true,
          "internalType": "bytes32",
          "name": "ticker",
          "type": "bytes32"
        },
        {
          "indexed": true,
          "internalType": "address",
          "name": "trader1",
          "type": "address"
        },
        {
          "indexed": true,
          "internalType": "address",
          "name": "trader2",
          "type": "address"
        },
        {
          "indexed": false,
          "internalType": "uint256",
          "name": "amount",
          "type": "uint256"
        },
        {
          "indexed": false,
          "internalType": "uint256",
          "name": "price",
          "type": "uint256"
        },
        {
          "indexed": false,
          "internalType": "uint256",
          "name": "date",
          "type": "uint256"
        }
      ],
      "name": "NewTrade",
      "type": "event"
    },
    {
      "anonymous": false,
      "inputs": [
        {
          "indexed": true,
          "internalType": "address",
          "name": "previousOwner",
          "type": "address"
        },
        {
          "indexed": true,
          "internalType": "address",
          "name": "newOwner",
          "type": "address"
        }
      ],
      "name": "OwnershipTransferred",
      "type": "event"
    },
    {
      "inputs": [],
      "name": "nextOrderId",
      "outputs": [
        {
          "internalType": "uint256",
          "name": "",
          "type": "uint256"
        }
      ],
      "stateMutability": "view",
      "type": "function",
      "constant": true
    },
    {
      "inputs": [],
      "name": "nextTradeId",
      "outputs": [
        {
          "internalType": "uint256",
          "name": "",
          "type": "uint256"
        }
      ],
      "stateMutability": "view",
      "type": "function",
      "constant": true
    },
    {
      "inputs": [
        {
          "internalType": "bytes32",
          "name": "",
          "type": "bytes32"
        },
        {
          "internalType": "uint256",
          "name": "",
          "type": "uint256"
        },
        {
          "internalType": "uint256",
          "name": "",
          "type": "uint256"
        }
      ],
      "name": "orderBook",
      "outputs": [
        {
          "internalType": "uint256",
          "name": "id",
          "type": "uint256"
        },
        {
          "internalType": "address",
          "name": "trader",
          "type": "address"
        },
        {
          "internalType": "enum Dex.Side",
          "name": "side",
          "type": "uint8"
        },
        {
          "internalType": "bytes32",
          "name": "ticker",
          "type": "bytes32"
        },
        {
          "internalType": "uint256",
          "name": "amount",
          "type": "uint256"
        },
        {
          "internalType": "uint256",
          "name": "filled",
          "type": "uint256"
        },
        {
          "internalType": "uint256",
          "name": "price",
          "type": "uint256"
        },
        {
          "internalType": "uint256",
          "name": "date",
          "type": "uint256"
        }
      ],
      "stateMutability": "view",
      "type": "function",
      "constant": true
    },
    {
      "inputs": [],
      "name": "owner",
      "outputs": [
        {
          "internalType": "address",
          "name": "",
          "type": "address"
        }
      ],
      "stateMutability": "view",
      "type": "function",
      "constant": true
    },
    {
      "inputs": [],
      "name": "renounceOwnership",
      "outputs": [],
      "stateMutability": "nonpayable",
      "type": "function"
    },
    {
      "inputs": [
        {
          "internalType": "uint256",
          "name": "",
          "type": "uint256"
        }
      ],
      "name": "tokenList",
      "outputs": [
        {
          "internalType": "bytes32",
          "name": "",
          "type": "bytes32"
        }
      ],
      "stateMutability": "view",
      "type": "function",
      "constant": true
    },
    {
      "inputs": [
        {
          "internalType": "bytes32",
          "name": "",
          "type": "bytes32"
        }
      ],
      "name": "tokens",
      "outputs": [
        {
          "internalType": "bytes32",
          "name": "ticker",
          "type": "bytes32"
        },
        {
          "internalType": "address",
          "name": "tokenAddress",
          "type": "address"
        }
      ],
      "stateMutability": "view",
      "type": "function",
      "constant": true
    },
    {
      "inputs": [
        {
          "internalType": "address",
          "name": "",
          "type": "address"
        },
        {
          "internalType": "bytes32",
          "name": "",
          "type": "bytes32"
        }
      ],
      "name": "traderBalances",
      "outputs": [
        {
          "internalType": "uint256",
          "name": "",
          "type": "uint256"
        }
      ],
      "stateMutability": "view",
      "type": "function",
      "constant": true
    },
    {
      "inputs": [
        {
          "internalType": "address",
          "name": "newOwner",
          "type": "address"
        }
      ],
      "name": "transferOwnership",
      "outputs": [],
      "stateMutability": "nonpayable",
      "type": "function"
    },
    {
      "inputs": [
        {
          "internalType": "bytes32",
          "name": "ticker",
          "type": "bytes32"
        },
        {
          "internalType": "address",
          "name": "tokenAddress",
          "type": "address"
        }
      ],
      "name": "addToken",
      "outputs": [],
      "stateMutability": "nonpayable",
      "type": "function"
    },
    {
      "inputs": [
        {
          "internalType": "uint256",
          "name": "amount",
          "type": "uint256"
        },
        {
          "internalType": "bytes32",
          "name": "ticker",
          "type": "bytes32"
        }
      ],
      "name": "deposit",
      "outputs": [],
      "stateMutability": "nonpayable",
      "type": "function"
    },
    {
      "inputs": [
        {
          "internalType": "uint256",
          "name": "amount",
          "type": "uint256"
        },
        {
          "internalType": "bytes32",
          "name": "ticker",
          "type": "bytes32"
        }
      ],
      "name": "withdraw",
      "outputs": [],
      "stateMutability": "nonpayable",
      "type": "function"
    },
    {
      "inputs": [
        {
          "internalType": "bytes32",
          "name": "ticker",
          "type": "bytes32"
        },
        {
          "internalType": "uint256",
          "name": "amount",
          "type": "uint256"
        },
        {
          "internalType": "uint256",
          "name": "price",
          "type": "uint256"
        },
        {
          "internalType": "enum Dex.Side",
          "name": "side",
          "type": "uint8"
        }
      ],
      "name": "createLimitOrder",
      "outputs": [],
      "stateMutability": "nonpayable",
      "type": "function"
    },
    {
      "inputs": [
        {
          "internalType": "bytes32",
          "name": "ticker",
          "type": "bytes32"
        },
        {
          "internalType": "uint256",
          "name": "amount",
          "type": "uint256"
        },
        {
          "internalType": "enum Dex.Side",
          "name": "side",
          "type": "uint8"
        }
      ],
      "name": "createMarketOrder",
      "outputs": [],
      "stateMutability": "nonpayable",
      "type": "function"
    },
    {
      "inputs": [
        {
          "internalType": "bytes32",
          "name": "ticker",
          "type": "bytes32"
        },
        {
          "internalType": "enum Dex.Side",
          "name": "side",
          "type": "uint8"
        }
      ],
      "name": "getOrders",
      "outputs": [
        {
          "components": [
            {
              "internalType": "uint256",
              "name": "id",
              "type": "uint256"
            },
            {
              "internalType": "address",
              "name": "trader",
              "type": "address"
            },
            {
              "internalType": "enum Dex.Side",
              "name": "side",
              "type": "uint8"
            },
            {
              "internalType": "bytes32",
              "name": "ticker",
              "type": "bytes32"
            },
            {
              "internalType": "uint256",
              "name": "amount",
              "type": "uint256"
            },
            {
              "internalType": "uint256",
              "name": "filled",
              "type": "uint256"
            },
            {
              "internalType": "uint256",
              "name": "price",
              "type": "uint256"
            },
            {
              "internalType": "uint256",
              "name": "date",
              "type": "uint256"
            }
          ],
          "internalType": "struct Dex.Order[]",
          "name": "",
          "type": "tuple[]"
        }
      ],
      "stateMutability": "view",
      "type": "function",
      "constant": true
    },
    {
      "inputs": [],
      "name": "getTokens",
      "outputs": [
        {
          "components": [
            {
              "internalType": "bytes32",
              "name": "ticker",
              "type": "bytes32"
            },
            {
              "internalType": "address",
              "name": "tokenAddress",
              "type": "address"
            }
          ],
          "internalType": "struct Dex.Token[]",
          "name": "",
          "type": "tuple[]"
        }
      ],
      "stateMutability": "view",
      "type": "function",
      "constant": true
    }
  ],
  "bytecode": "0x60806040523480156200001157600080fd5b50600062000024620000c860201b60201c565b9050806000806101000a81548173ffffffffffffffffffffffffffffffffffffffff021916908373ffffffffffffffffffffffffffffffffffffffff1602179055508073ffffffffffffffffffffffffffffffffffffffff16600073ffffffffffffffffffffffffffffffffffffffff167f8be0079c531659141344cd1fd0a4f28419497f9722a3daafe3b4186f6b6457e060405160405180910390a350620000d0565b600033905090565b613bf080620000e06000396000f3fe608060405234801561001057600080fd5b50600436106101005760003560e01c8063904194a311610097578063aa6ca80811610066578063aa6ca808146102b5578063c9630cb0146102d3578063d9c0c950146102ef578063f2fde38b1461030b57610100565b8063904194a31461021c5780639776aacf1461024d5780639ead722214610269578063a8d2021a1461029957610100565b806372ce957e116100d357806372ce957e146101945780637f2c6246146101c4578063813ad083146101e05780638da5cb5b146101fe57610100565b80630bb431b6146101055780632a58b3301461013c57806346e9658b1461015a578063715018a61461018a575b600080fd5b61011f600480360381019061011a9190613089565b610327565b6040516101339897969594939291906137ba565b60405180910390f35b6101446103c6565b604051610151919061379f565b60405180910390f35b610174600480360381019061016f9190612ffe565b6103cc565b6040516101819190613637565b60405180910390f35b6101926105a2565b005b6101ae60048036038101906101a99190612f34565b6106dc565b6040516101bb919061379f565b60405180910390f35b6101de60048036038101906101d9919061303a565b610701565b005b6101e86118e4565b6040516101f5919061379f565b60405180910390f35b6102066118ea565b60405161021391906135bc565b60405180910390f35b61023660048036038101906102319190612f99565b611913565b604051610244929190613696565b60405180910390f35b61026760048036038101906102629190612fc2565b611957565b005b610283600480360381019061027e919061313b565b611a92565b604051610290919061367b565b60405180910390f35b6102b360048036038101906102ae9190613164565b611ab6565b005b6102bd611d20565b6040516102ca9190613659565b60405180910390f35b6102ed60048036038101906102e89190613164565b611f1f565b005b610309600480360381019061030491906130d8565b6120f8565b005b61032560048036038101906103209190612f0b565b612cbe565b005b6004602052826000526040600020602052816000526040600020818154811061034f57600080fd5b906000526020600020906007020160009250925050508060000154908060010160009054906101000a900473ffffffffffffffffffffffffffffffffffffffff16908060010160149054906101000a900460ff16908060020154908060030154908060040154908060050154908060060154905088565b60055481565b606060046000848152602001908152602001600020600083600181111561041c577f4e487b7100000000000000000000000000000000000000000000000000000000600052602160045260246000fd5b8152602001908152602001600020805480602002602001604051908101604052809291908181526020016000905b82821015610596578382906000526020600020906007020160405180610100016040529081600082015481526020016001820160009054906101000a900473ffffffffffffffffffffffffffffffffffffffff1673ffffffffffffffffffffffffffffffffffffffff1673ffffffffffffffffffffffffffffffffffffffff1681526020016001820160149054906101000a900460ff166001811115610519577f4e487b7100000000000000000000000000000000000000000000000000000000600052602160045260246000fd5b6001811115610551577f4e487b7100000000000000000000000000000000000000000000000000000000600052602160045260246000fd5b8152602001600282015481526020016003820154815260200160048201548152602001600582015481526020016006820154815250508152602001906001019061044a565b50505050905092915050565b6105aa612e67565b73ffffffffffffffffffffffffffffffffffffffff166105c86118ea565b73ffffffffffffffffffffffffffffffffffffffff161461061e576040517f08c379a0000000000000000000000000000000000000000000000000000000008152600401610615906136ff565b60405180910390fd5b600073ffffffffffffffffffffffffffffffffffffffff1660008054906101000a900473ffffffffffffffffffffffffffffffffffffffff1673ffffffffffffffffffffffffffffffffffffffff167f8be0079c531659141344cd1fd0a4f28419497f9722a3daafe3b4186f6b6457e060405160405180910390a360008060006101000a81548173ffffffffffffffffffffffffffffffffffffffff021916908373ffffffffffffffffffffffffffffffffffffffff160217905550565b6003602052816000526040600020602052806000526040600020600091509150505481565b82600073ffffffffffffffffffffffffffffffffffffffff166001600083815260200190815260200160002060010160009054906101000a900473ffffffffffffffffffffffffffffffffffffffff1673ffffffffffffffffffffffffffffffffffffffff1614156107a8576040517f08c379a000000000000000000000000000000000000000000000000000000000815260040161079f9061377f565b60405180910390fd5b837f444149000000000000000000000000000000000000000000000000000000000081141561080c576040517f08c379a00000000000000000000000000000000000000000000000000000000081526004016108039061375f565b60405180910390fd5b600180811115610845577f4e487b7100000000000000000000000000000000000000000000000000000000600052602160045260246000fd5b83600181111561087e577f4e487b7100000000000000000000000000000000000000000000000000000000600052602160045260246000fd5b14156109185783600360003373ffffffffffffffffffffffffffffffffffffffff1673ffffffffffffffffffffffffffffffffffffffff1681526020019081526020016000206000878152602001908152602001600020541015610917576040517f08c379a000000000000000000000000000000000000000000000000000000000815260040161090e9061371f565b60405180910390fd5b5b6000600460008781526020019081526020016000206000806001811115610968577f4e487b7100000000000000000000000000000000000000000000000000000000600052602160045260246000fd5b8660018111156109a1577f4e487b7100000000000000000000000000000000000000000000000000000000600052602160045260246000fd5b146109ad5760006109b0565b60015b60018111156109e8577f4e487b7100000000000000000000000000000000000000000000000000000000600052602160045260246000fd5b815260200190815260200160002090506000808690505b828054905082108015610a125750600081115b15611587576000838381548110610a52577f4e487b7100000000000000000000000000000000000000000000000000000000600052603260045260246000fd5b906000526020600020906007020160040154848481548110610a9d577f4e487b7100000000000000000000000000000000000000000000000000000000600052603260045260246000fd5b906000526020600020906007020160030154610ab991906139be565b90506000818311610aca5782610acc565b815b90508083610ada91906139be565b925080858581548110610b16577f4e487b7100000000000000000000000000000000000000000000000000000000600052603260045260246000fd5b90600052602060002090600702016004016000828254610b36919061390e565b925050819055503373ffffffffffffffffffffffffffffffffffffffff16858581548110610b8d577f4e487b7100000000000000000000000000000000000000000000000000000000600052603260045260246000fd5b906000526020600020906007020160010160009054906101000a900473ffffffffffffffffffffffffffffffffffffffff1673ffffffffffffffffffffffffffffffffffffffff168b7fdb0c486e680ba8026643e6a85f8d157b5e7bcd4b32b54d564542570a9eb20416600654898981548110610c33577f4e487b7100000000000000000000000000000000000000000000000000000000600052603260045260246000fd5b906000526020600020906007020160000154868b8b81548110610c7f577f4e487b7100000000000000000000000000000000000000000000000000000000600052603260045260246000fd5b90600052602060002090600702016005015442604051610ca3959493929190613838565b60405180910390a4600180811115610ce4577f4e487b7100000000000000000000000000000000000000000000000000000000600052602160045260246000fd5b886001811115610d1d577f4e487b7100000000000000000000000000000000000000000000000000000000600052602160045260246000fd5b141561107e5780600360003373ffffffffffffffffffffffffffffffffffffffff1673ffffffffffffffffffffffffffffffffffffffff16815260200190815260200160002060008c81526020019081526020016000206000828254610d8391906139be565b92505081905550848481548110610dc3577f4e487b7100000000000000000000000000000000000000000000000000000000600052603260045260246000fd5b90600052602060002090600702016005015481610de09190613964565b600360003373ffffffffffffffffffffffffffffffffffffffff1673ffffffffffffffffffffffffffffffffffffffff16815260200190815260200160002060007f444149000000000000000000000000000000000000000000000000000000000081526020019081526020016000206000828254610e5f919061390e565b925050819055508060036000878781548110610ea4577f4e487b7100000000000000000000000000000000000000000000000000000000600052603260045260246000fd5b906000526020600020906007020160010160009054906101000a900473ffffffffffffffffffffffffffffffffffffffff1673ffffffffffffffffffffffffffffffffffffffff1673ffffffffffffffffffffffffffffffffffffffff16815260200190815260200160002060008c81526020019081526020016000206000828254610f30919061390e565b92505081905550848481548110610f70577f4e487b7100000000000000000000000000000000000000000000000000000000600052603260045260246000fd5b90600052602060002090600702016005015481610f8d9190613964565b60036000878781548110610fca577f4e487b7100000000000000000000000000000000000000000000000000000000600052603260045260246000fd5b906000526020600020906007020160010160009054906101000a900473ffffffffffffffffffffffffffffffffffffffff1673ffffffffffffffffffffffffffffffffffffffff1673ffffffffffffffffffffffffffffffffffffffff16815260200190815260200160002060007f44414900000000000000000000000000000000000000000000000000000000008152602001908152602001600020600082825461107691906139be565b925050819055505b600060018111156110b8577f4e487b7100000000000000000000000000000000000000000000000000000000600052602160045260246000fd5b8860018111156110f1577f4e487b7100000000000000000000000000000000000000000000000000000000600052602160045260246000fd5b141561155a57848481548110611130577f4e487b7100000000000000000000000000000000000000000000000000000000600052603260045260246000fd5b9060005260206000209060070201600501548161114d9190613964565b600360003373ffffffffffffffffffffffffffffffffffffffff1673ffffffffffffffffffffffffffffffffffffffff16815260200190815260200160002060007f444149000000000000000000000000000000000000000000000000000000000081526020019081526020016000205410156111ff576040517f08c379a00000000000000000000000000000000000000000000000000000000081526004016111f69061373f565b60405180910390fd5b80600360003373ffffffffffffffffffffffffffffffffffffffff1673ffffffffffffffffffffffffffffffffffffffff16815260200190815260200160002060008c8152602001908152602001600020600082825461125f919061390e565b9250508190555084848154811061129f577f4e487b7100000000000000000000000000000000000000000000000000000000600052603260045260246000fd5b906000526020600020906007020160050154816112bc9190613964565b600360003373ffffffffffffffffffffffffffffffffffffffff1673ffffffffffffffffffffffffffffffffffffffff16815260200190815260200160002060007f44414900000000000000000000000000000000000000000000000000000000008152602001908152602001600020600082825461133b91906139be565b925050819055508060036000878781548110611380577f4e487b7100000000000000000000000000000000000000000000000000000000600052603260045260246000fd5b906000526020600020906007020160010160009054906101000a900473ffffffffffffffffffffffffffffffffffffffff1673ffffffffffffffffffffffffffffffffffffffff1673ffffffffffffffffffffffffffffffffffffffff16815260200190815260200160002060008c8152602001908152602001600020600082825461140c91906139be565b9250508190555084848154811061144c577f4e487b7100000000000000000000000000000000000000000000000000000000600052603260045260246000fd5b906000526020600020906007020160050154816114699190613964565b600360008787815481106114a6577f4e487b7100000000000000000000000000000000000000000000000000000000600052603260045260246000fd5b906000526020600020906007020160010160009054906101000a900473ffffffffffffffffffffffffffffffffffffffff1673ffffffffffffffffffffffffffffffffffffffff1673ffffffffffffffffffffffffffffffffffffffff16815260200190815260200160002060007f444149000000000000000000000000000000000000000000000000000000000081526020019081526020016000206000828254611552919061390e565b925050819055505b6006600081548092919061156d90613a93565b9190505550838061157d90613a93565b94505050506109ff565b600091505b82805490508210801561163257508282815481106115d3577f4e487b7100000000000000000000000000000000000000000000000000000000600052603260045260246000fd5b90600052602060002090600702016003015483838154811061161e577f4e487b7100000000000000000000000000000000000000000000000000000000600052603260045260246000fd5b906000526020600020906007020160040154145b156118da5760008290505b6001848054905061164e91906139be565b81101561180b5783600182611663919061390e565b8154811061169a577f4e487b7100000000000000000000000000000000000000000000000000000000600052603260045260246000fd5b90600052602060002090600702018482815481106116e1577f4e487b7100000000000000000000000000000000000000000000000000000000600052603260045260246000fd5b9060005260206000209060070201600082015481600001556001820160009054906101000a900473ffffffffffffffffffffffffffffffffffffffff168160010160006101000a81548173ffffffffffffffffffffffffffffffffffffffff021916908373ffffffffffffffffffffffffffffffffffffffff1602179055506001820160149054906101000a900460ff168160010160146101000a81548160ff021916908360018111156117be577f4e487b7100000000000000000000000000000000000000000000000000000000600052602160045260246000fd5b02179055506002820154816002015560038201548160030155600482015481600401556005820154816005015560068201548160060155905050808061180390613a93565b91505061163d565b5082805480611843577f4e487b7100000000000000000000000000000000000000000000000000000000600052603160045260246000fd5b60019003818190600052602060002090600702016000808201600090556001820160006101000a81549073ffffffffffffffffffffffffffffffffffffffff02191690556001820160146101000a81549060ff0219169055600282016000905560038201600090556004820160009055600582016000905560068201600090555050905581806118d290613a93565b92505061158c565b5050505050505050565b60065481565b60008060009054906101000a900473ffffffffffffffffffffffffffffffffffffffff16905090565b60016020528060005260406000206000915090508060000154908060010160009054906101000a900473ffffffffffffffffffffffffffffffffffffffff16905082565b61195f612e67565b73ffffffffffffffffffffffffffffffffffffffff1661197d6118ea565b73ffffffffffffffffffffffffffffffffffffffff16146119d3576040517f08c379a00000000000000000000000000000000000000000000000000000000081526004016119ca906136ff565b60405180910390fd5b60405180604001604052808381526020018273ffffffffffffffffffffffffffffffffffffffff16815250600160008481526020019081526020016000206000820151816000015560208201518160010160006101000a81548173ffffffffffffffffffffffffffffffffffffffff021916908373ffffffffffffffffffffffffffffffffffffffff16021790555090505060028290806001815401808255809150506001900390600052602060002001600090919091909150555050565b60028181548110611aa257600080fd5b906000526020600020016000915090505481565b80600073ffffffffffffffffffffffffffffffffffffffff166001600083815260200190815260200160002060010160009054906101000a900473ffffffffffffffffffffffffffffffffffffffff1673ffffffffffffffffffffffffffffffffffffffff161415611b5d576040517f08c379a0000000000000000000000000000000000000000000000000000000008152600401611b549061377f565b60405180910390fd5b600360003373ffffffffffffffffffffffffffffffffffffffff1673ffffffffffffffffffffffffffffffffffffffff168152602001908152602001600020600083815260200190815260200160002054831115611bf0576040517f08c379a0000000000000000000000000000000000000000000000000000000008152600401611be7906136df565b60405180910390fd5b82600360003373ffffffffffffffffffffffffffffffffffffffff1673ffffffffffffffffffffffffffffffffffffffff16815260200190815260200160002060008481526020019081526020016000206000828254611c5091906139be565b925050819055506001600083815260200190815260200160002060010160009054906101000a900473ffffffffffffffffffffffffffffffffffffffff1673ffffffffffffffffffffffffffffffffffffffff1663a9059cbb33856040518363ffffffff1660e01b8152600401611cc892919061360e565b602060405180830381600087803b158015611ce257600080fd5b505af1158015611cf6573d6000803e3d6000fd5b505050506040513d601f19601f82011682018060405250810190611d1a9190612f70565b50505050565b6060600060028054905067ffffffffffffffff811115611d69577f4e487b7100000000000000000000000000000000000000000000000000000000600052604160045260246000fd5b604051908082528060200260200182016040528015611da257816020015b611d8f612e6f565b815260200190600190039081611d875790505b50905060005b6001600280549050611dba91906139be565b811015611f175760405180604001604052806001600060028581548110611e0a577f4e487b7100000000000000000000000000000000000000000000000000000000600052603260045260246000fd5b906000526020600020015481526020019081526020016000206000015481526020016001600060028581548110611e6a577f4e487b7100000000000000000000000000000000000000000000000000000000600052603260045260246000fd5b9060005260206000200154815260200190815260200160002060010160009054906101000a900473ffffffffffffffffffffffffffffffffffffffff1673ffffffffffffffffffffffffffffffffffffffff16815250828281518110611ef9577f4e487b7100000000000000000000000000000000000000000000000000000000600052603260045260246000fd5b60200260200101819052508080611f0f90613a93565b915050611da8565b508091505090565b80600073ffffffffffffffffffffffffffffffffffffffff166001600083815260200190815260200160002060010160009054906101000a900473ffffffffffffffffffffffffffffffffffffffff1673ffffffffffffffffffffffffffffffffffffffff161415611fc6576040517f08c379a0000000000000000000000000000000000000000000000000000000008152600401611fbd9061377f565b60405180910390fd5b6001600083815260200190815260200160002060010160009054906101000a900473ffffffffffffffffffffffffffffffffffffffff1673ffffffffffffffffffffffffffffffffffffffff166323b872dd3330866040518463ffffffff1660e01b8152600401612039939291906135d7565b602060405180830381600087803b15801561205357600080fd5b505af1158015612067573d6000803e3d6000fd5b505050506040513d601f19601f8201168201806040525081019061208b9190612f70565b5082600360003373ffffffffffffffffffffffffffffffffffffffff1673ffffffffffffffffffffffffffffffffffffffff168152602001908152602001600020600084815260200190815260200160002060008282546120ec919061390e565b92505081905550505050565b83600073ffffffffffffffffffffffffffffffffffffffff166001600083815260200190815260200160002060010160009054906101000a900473ffffffffffffffffffffffffffffffffffffffff1673ffffffffffffffffffffffffffffffffffffffff16141561219f576040517f08c379a00000000000000000000000000000000000000000000000000000000081526004016121969061377f565b60405180910390fd5b847f4441490000000000000000000000000000000000000000000000000000000000811415612203576040517f08c379a00000000000000000000000000000000000000000000000000000000081526004016121fa9061375f565b60405180910390fd5b60018081111561223c577f4e487b7100000000000000000000000000000000000000000000000000000000600052602160045260246000fd5b836001811115612275577f4e487b7100000000000000000000000000000000000000000000000000000000600052602160045260246000fd5b14156123135784600360003373ffffffffffffffffffffffffffffffffffffffff1673ffffffffffffffffffffffffffffffffffffffff168152602001908152602001600020600088815260200190815260200160002054101561230e576040517f08c379a00000000000000000000000000000000000000000000000000000000081526004016123059061371f565b60405180910390fd5b6123d2565b838561231f9190613964565b600360003373ffffffffffffffffffffffffffffffffffffffff1673ffffffffffffffffffffffffffffffffffffffff16815260200190815260200160002060007f444149000000000000000000000000000000000000000000000000000000000081526020019081526020016000205410156123d1576040517f08c379a00000000000000000000000000000000000000000000000000000000081526004016123c89061373f565b60405180910390fd5b5b6000600460008881526020019081526020016000206000856001811115612422577f4e487b7100000000000000000000000000000000000000000000000000000000600052602160045260246000fd5b815260200190815260200160002090508060405180610100016040528060055481526020013373ffffffffffffffffffffffffffffffffffffffff16815260200186600181111561249c577f4e487b7100000000000000000000000000000000000000000000000000000000600052602160045260246000fd5b8152602001898152602001888152602001600081526020018781526020014281525090806001815401808255809150506001900390600052602060002090600702016000909190919091506000820151816000015560208201518160010160006101000a81548173ffffffffffffffffffffffffffffffffffffffff021916908373ffffffffffffffffffffffffffffffffffffffff16021790555060408201518160010160146101000a81548160ff02191690836001811115612589577f4e487b7100000000000000000000000000000000000000000000000000000000600052602160045260246000fd5b0217905550606082015181600201556080820151816003015560a0820151816004015560c0820151816005015560e0820151816006015550506000808280549050116125d65760006125e8565b600182805490506125e791906139be565b5b90505b6000811115612c9c576000600181111561262e577f4e487b7100000000000000000000000000000000000000000000000000000000600052602160045260246000fd5b856001811115612667577f4e487b7100000000000000000000000000000000000000000000000000000000600052602160045260246000fd5b14801561271357508160018261267d91906139be565b815481106126b4577f4e487b7100000000000000000000000000000000000000000000000000000000600052603260045260246000fd5b9060005260206000209060070201600501548282815481106126ff577f4e487b7100000000000000000000000000000000000000000000000000000000600052603260045260246000fd5b906000526020600020906007020160050154105b1561271d57612c9c565b600180811115612756577f4e487b7100000000000000000000000000000000000000000000000000000000600052602160045260246000fd5b85600181111561278f577f4e487b7100000000000000000000000000000000000000000000000000000000600052602160045260246000fd5b14801561283b5750816001826127a591906139be565b815481106127dc577f4e487b7100000000000000000000000000000000000000000000000000000000600052603260045260246000fd5b906000526020600020906007020160050154828281548110612827577f4e487b7100000000000000000000000000000000000000000000000000000000600052603260045260246000fd5b906000526020600020906007020160050154115b1561284557612c9c565b60008260018361285591906139be565b8154811061288c577f4e487b7100000000000000000000000000000000000000000000000000000000600052603260045260246000fd5b906000526020600020906007020160405180610100016040529081600082015481526020016001820160009054906101000a900473ffffffffffffffffffffffffffffffffffffffff1673ffffffffffffffffffffffffffffffffffffffff1673ffffffffffffffffffffffffffffffffffffffff1681526020016001820160149054906101000a900460ff166001811115612951577f4e487b7100000000000000000000000000000000000000000000000000000000600052602160045260246000fd5b6001811115612989577f4e487b7100000000000000000000000000000000000000000000000000000000600052602160045260246000fd5b81526020016002820154815260200160038201548152602001600482015481526020016005820154815260200160068201548152505090508282815481106129fa577f4e487b7100000000000000000000000000000000000000000000000000000000600052603260045260246000fd5b906000526020600020906007020183600184612a1691906139be565b81548110612a4d577f4e487b7100000000000000000000000000000000000000000000000000000000600052603260045260246000fd5b9060005260206000209060070201600082015481600001556001820160009054906101000a900473ffffffffffffffffffffffffffffffffffffffff168160010160006101000a81548173ffffffffffffffffffffffffffffffffffffffff021916908373ffffffffffffffffffffffffffffffffffffffff1602179055506001820160149054906101000a900460ff168160010160146101000a81548160ff02191690836001811115612b2a577f4e487b7100000000000000000000000000000000000000000000000000000000600052602160045260246000fd5b0217905550600282015481600201556003820154816003015560048201548160040155600582015481600501556006820154816006015590505080838381548110612b9e577f4e487b7100000000000000000000000000000000000000000000000000000000600052603260045260246000fd5b90600052602060002090600702016000820151816000015560208201518160010160006101000a81548173ffffffffffffffffffffffffffffffffffffffff021916908373ffffffffffffffffffffffffffffffffffffffff16021790555060408201518160010160146101000a81548160ff02191690836001811115612c4e577f4e487b7100000000000000000000000000000000000000000000000000000000600052602160045260246000fd5b0217905550606082015181600201556080820151816003015560a0820151816004015560c0820151816005015560e082015181600601559050508180612c9390613a69565b925050506125eb565b60056000815480929190612caf90613a93565b91905055505050505050505050565b612cc6612e67565b73ffffffffffffffffffffffffffffffffffffffff16612ce46118ea565b73ffffffffffffffffffffffffffffffffffffffff1614612d3a576040517f08c379a0000000000000000000000000000000000000000000000000000000008152600401612d31906136ff565b60405180910390fd5b600073ffffffffffffffffffffffffffffffffffffffff168173ffffffffffffffffffffffffffffffffffffffff161415612daa576040517f08c379a0000000000000000000000000000000000000000000000000000000008152600401612da1906136bf565b60405180910390fd5b8073ffffffffffffffffffffffffffffffffffffffff1660008054906101000a900473ffffffffffffffffffffffffffffffffffffffff1673ffffffffffffffffffffffffffffffffffffffff167f8be0079c531659141344cd1fd0a4f28419497f9722a3daafe3b4186f6b6457e060405160405180910390a3806000806101000a81548173ffffffffffffffffffffffffffffffffffffffff021916908373ffffffffffffffffffffffffffffffffffffffff16021790555050565b600033905090565b604051806040016040528060008019168152602001600073ffffffffffffffffffffffffffffffffffffffff1681525090565b600081359050612eb181613b4e565b92915050565b600081519050612ec681613b65565b92915050565b600081359050612edb81613b7c565b92915050565b600081359050612ef081613b93565b92915050565b600081359050612f0581613ba3565b92915050565b600060208284031215612f1d57600080fd5b6000612f2b84828501612ea2565b91505092915050565b60008060408385031215612f4757600080fd5b6000612f5585828601612ea2565b9250506020612f6685828601612ecc565b9150509250929050565b600060208284031215612f8257600080fd5b6000612f9084828501612eb7565b91505092915050565b600060208284031215612fab57600080fd5b6000612fb984828501612ecc565b91505092915050565b60008060408385031215612fd557600080fd5b6000612fe385828601612ecc565b9250506020612ff485828601612ea2565b9150509250929050565b6000806040838503121561301157600080fd5b600061301f85828601612ecc565b925050602061303085828601612ee1565b9150509250929050565b60008060006060848603121561304f57600080fd5b600061305d86828701612ecc565b935050602061306e86828701612ef6565b925050604061307f86828701612ee1565b9150509250925092565b60008060006060848603121561309e57600080fd5b60006130ac86828701612ecc565b93505060206130bd86828701612ef6565b92505060406130ce86828701612ef6565b9150509250925092565b600080600080608085870312156130ee57600080fd5b60006130fc87828801612ecc565b945050602061310d87828801612ef6565b935050604061311e87828801612ef6565b925050606061312f87828801612ee1565b91505092959194509250565b60006020828403121561314d57600080fd5b600061315b84828501612ef6565b91505092915050565b6000806040838503121561317757600080fd5b600061318585828601612ef6565b925050602061319685828601612ecc565b9150509250929050565b60006131ac83836134cd565b6101008301905092915050565b60006131c5838361356f565b60408301905092915050565b6131da816139f2565b82525050565b6131e9816139f2565b82525050565b60006131fa826138ab565b61320481856138db565b935061320f8361388b565b8060005b8381101561324057815161322788826131a0565b9750613232836138c1565b925050600181019050613213565b5085935050505092915050565b6000613258826138b6565b61326281856138ec565b935061326d8361389b565b8060005b8381101561329e57815161328588826131b9565b9750613290836138ce565b925050600181019050613271565b5085935050505092915050565b6132b481613a10565b82525050565b6132c381613a10565b82525050565b6132d281613a57565b82525050565b6132e181613a57565b82525050565b60006132f46026836138fd565b91507f4f776e61626c653a206e6577206f776e657220697320746865207a65726f206160008301527f64647265737300000000000000000000000000000000000000000000000000006020830152604082019050919050565b600061335a600f836138fd565b91507f62616c616e636520746f6f206c6f7700000000000000000000000000000000006000830152602082019050919050565b600061339a6020836138fd565b91507f4f776e61626c653a2063616c6c6572206973206e6f7420746865206f776e65726000830152602082019050919050565b60006133da6015836138fd565b91507f746f6b656e2062616c616e636520746f6f206c6f7700000000000000000000006000830152602082019050919050565b600061341a6013836138fd565b91507f6461692062616c616e636520746f6f206c6f77000000000000000000000000006000830152602082019050919050565b600061345a6011836138fd565b91507f63616e206e6f74207472616465204441490000000000000000000000000000006000830152602082019050919050565b600061349a6019836138fd565b91507f7468697320746f6b656e20646f6573206e6f74206578697374000000000000006000830152602082019050919050565b610100820160008201516134e4600085018261359e565b5060208201516134f760208501826131d1565b50604082015161350a60408501826132c9565b50606082015161351d60608501826132ab565b506080820151613530608085018261359e565b5060a082015161354360a085018261359e565b5060c082015161355660c085018261359e565b5060e082015161356960e085018261359e565b50505050565b60408201600082015161358560008501826132ab565b50602082015161359860208501826131d1565b50505050565b6135a781613a4d565b82525050565b6135b681613a4d565b82525050565b60006020820190506135d160008301846131e0565b92915050565b60006060820190506135ec60008301866131e0565b6135f960208301856131e0565b61360660408301846135ad565b949350505050565b600060408201905061362360008301856131e0565b61363060208301846135ad565b9392505050565b6000602082019050818103600083015261365181846131ef565b905092915050565b60006020820190508181036000830152613673818461324d565b905092915050565b600060208201905061369060008301846132ba565b92915050565b60006040820190506136ab60008301856132ba565b6136b860208301846131e0565b9392505050565b600060208201905081810360008301526136d8816132e7565b9050919050565b600060208201905081810360008301526136f88161334d565b9050919050565b600060208201905081810360008301526137188161338d565b9050919050565b60006020820190508181036000830152613738816133cd565b9050919050565b600060208201905081810360008301526137588161340d565b9050919050565b600060208201905081810360008301526137788161344d565b9050919050565b600060208201905081810360008301526137988161348d565b9050919050565b60006020820190506137b460008301846135ad565b92915050565b6000610100820190506137d0600083018b6135ad565b6137dd602083018a6131e0565b6137ea60408301896132d8565b6137f760608301886132ba565b61380460808301876135ad565b61381160a08301866135ad565b61381e60c08301856135ad565b61382b60e08301846135ad565b9998505050505050505050565b600060a08201905061384d60008301886135ad565b61385a60208301876135ad565b61386760408301866135ad565b61387460608301856135ad565b61388160808301846135ad565b9695505050505050565b6000819050602082019050919050565b6000819050602082019050919050565b600081519050919050565b600081519050919050565b6000602082019050919050565b6000602082019050919050565b600082825260208201905092915050565b600082825260208201905092915050565b600082825260208201905092915050565b600061391982613a4d565b915061392483613a4d565b9250827fffffffffffffffffffffffffffffffffffffffffffffffffffffffffffffffff0382111561395957613958613adc565b5b828201905092915050565b600061396f82613a4d565b915061397a83613a4d565b9250817fffffffffffffffffffffffffffffffffffffffffffffffffffffffffffffffff04831182151516156139b3576139b2613adc565b5b828202905092915050565b60006139c982613a4d565b91506139d483613a4d565b9250828210156139e7576139e6613adc565b5b828203905092915050565b60006139fd82613a2d565b9050919050565b60008115159050919050565b6000819050919050565b6000819050613a2882613b3a565b919050565b600073ffffffffffffffffffffffffffffffffffffffff82169050919050565b6000819050919050565b6000613a6282613a1a565b9050919050565b6000613a7482613a4d565b91506000821415613a8857613a87613adc565b5b600182039050919050565b6000613a9e82613a4d565b91507fffffffffffffffffffffffffffffffffffffffffffffffffffffffffffffffff821415613ad157613ad0613adc565b5b600182019050919050565b7f4e487b7100000000000000000000000000000000000000000000000000000000600052601160045260246000fd5b7f4e487b7100000000000000000000000000000000000000000000000000000000600052602160045260246000fd5b60028110613b4b57613b4a613b0b565b5b50565b613b57816139f2565b8114613b6257600080fd5b50565b613b6e81613a04565b8114613b7957600080fd5b50565b613b8581613a10565b8114613b9057600080fd5b50565b60028110613ba057600080fd5b50565b613bac81613a4d565b8114613bb757600080fd5b5056fea26469706673582212206f6da438e980201114a8368edb0aac3c9070188a34f5d35fc7f3b1d20d14c4d964736f6c63430008000033",
  "immutableReferences": {},
  "source": "// SPDX-License-Identifier: MIT\n/// @title Decentralized Exchange\n/// @author MikaTrust\n/// @notice For education only !\n/// @dev By default, the owner of an Ownable contract is the account that deployed it\n/// @dev Solidity 0.8.0, no need to import OpenZeppelin SafeMath anymore\n\npragma solidity ^0.8.0;\n\nimport \"@openzeppelin/contracts/access/Ownable.sol\";\nimport \"@openzeppelin/contracts/token/ERC20/IERC20.sol\";\n\ncontract Dex is Ownable {\n\n    enum Side {\n        BUY,\n        SELL\n    }\n\n    struct Token {\n        bytes32 ticker;\n        address tokenAddress;\n    }\n\n    struct Order {\n        uint id;\n        address trader;\n        Side side;\n        bytes32 ticker;\n        uint amount;\n        uint filled;\n        uint price;\n        uint date;\n    }\n\n    mapping (bytes32 => Token) public tokens;\n    bytes32[] public tokenList;\n    mapping (address => mapping(bytes32 => uint)) public traderBalances;\n    mapping (bytes32 => mapping ( uint => Order[])) public orderBook;\n    uint public nextOrderId;\n    uint public nextTradeId;\n    bytes32 constant DAI = bytes32('DAI');\n\n    event NewTrade (\n        uint tradeId,\n        uint orderId,\n        bytes32 indexed ticker,\n        address indexed trader1,\n        address indexed trader2,\n        uint amount,\n        uint price,\n        uint date\n    );\n\n    constructor() {}\n\n    function addToken (\n        bytes32 ticker,\n        address tokenAddress)\n        onlyOwner()\n        external {\n            tokens[ticker] = Token(ticker, tokenAddress);\n            tokenList.push(ticker);\n    }\n\n    function deposit (\n        uint amount,\n        bytes32 ticker)\n        tokenExists(ticker)\n        external {\n            IERC20(tokens[ticker].tokenAddress).transferFrom(\n                msg.sender, \n                address(this),\n                amount);\n            traderBalances[msg.sender][ticker] += amount;\n        }\n\n    function withdraw (\n        uint amount,\n        bytes32 ticker)\n        tokenExists(ticker)\n        external {\n            require (amount <= traderBalances[msg.sender][ticker], 'balance too low');\n            traderBalances[msg.sender][ticker] -= amount;\n            IERC20(tokens[ticker].tokenAddress).transfer(\n                msg.sender,\n                amount);\n        }\n\n    function createLimitOrder (\n        bytes32 ticker,\n        uint amount,\n        uint price,\n        Side side)\n        tokenExists(ticker)\n        tokenIsNotDai(ticker)\n        external {\n            if(side == Side.SELL){\n                require(traderBalances[msg.sender][ticker] >= amount,\n                'token balance too low'\n                );\n            } else {\n                require(traderBalances[msg.sender][DAI] >= amount * price,\n                'dai balance too low'\n                );\n\n            }\n\n            /*\n            struct Order {\n                uint id;\n                address trader;\n                Side side;\n                bytes32 ticker;\n                uint amount;\n                uint filled;\n                uint price;\n                uint date;\n            }\n            */\n\n            Order[] storage orders = orderBook[ticker][uint(side)];\n            orders.push(Order(\n                nextOrderId,\n                msg.sender,\n                side,\n                ticker,\n                amount,\n                uint(0),\n                price,\n                block.timestamp\n            )); \n\n            //Bubble sort\n            uint i = orders.length > 0 ? orders.length-1 : 0;\n            \n            while(i>0){\n                if(side == Side.BUY && orders[i].price < orders[i-1].price){\n                    break;\n                }\n\n                if(side == Side.SELL && orders[i].price > orders[i-1].price){\n                    break;\n                }\n                Order memory order = orders[i - 1];\n                orders[i - 1] = orders[i];\n                orders[i] = order;\n                i--;\n            }\n            \n            \n            nextOrderId++;\n\n    }\n\n    function createMarketOrder (\n        bytes32 ticker,\n        uint amount,\n        Side side)\n        tokenExists(ticker)\n        tokenIsNotDai(ticker)\n        external {\n            if(side == Side.SELL){\n                require(traderBalances[msg.sender][ticker] >= amount,\n                'token balance too low'\n                );\n            }\n            \n            Order[] storage orders = orderBook[ticker][uint(side == Side.BUY ? Side.SELL : Side.BUY)];\n            uint i;\n            uint remaining = amount;\n\n            while(i < orders.length && remaining > 0){\n                uint available = orders[i].amount - orders[i].filled;\n                uint matched = (remaining > available) ? available : remaining;\n                remaining -= matched;\n                orders[i].filled += matched;\n                emit NewTrade(\n                    nextTradeId, \n                    orders[i].id, \n                    ticker,\n                    orders[i].trader,\n                    msg.sender, \n                    matched, \n                    orders[i].price, \n                    block.timestamp\n                );\n\n                if(side == Side.SELL){\n                    traderBalances[msg.sender][ticker] -= matched;\n                    traderBalances[msg.sender][DAI] += matched * orders[i].price;\n                    traderBalances[orders[i].trader][ticker] += matched;\n                    traderBalances[orders[i].trader][DAI]  -= matched * orders[i].price;\n                }\n                if(side == Side.BUY){\n                    require(\n                        traderBalances[msg.sender][DAI] >= matched * orders[i].price,\n                        'dai balance too low'\n                    );\n                    traderBalances[msg.sender][ticker] += matched;\n                    traderBalances[msg.sender][DAI] -= matched * orders[i].price;\n                    traderBalances[orders[i].trader][ticker] -= matched;\n                    traderBalances[orders[i].trader][DAI] += matched * orders[i].price;\n                }\n                nextTradeId++;\n                i++;\n            }\n\n            //Clean the order book by removing filled order\n            i = 0;\n            while(i < orders.length && orders[i].filled == orders[i].amount){\n                for(uint j = i; j<orders.length - 1; j++){\n                    orders[j] = orders [j + 1];\n                }\n                orders.pop();\n                i++; \n            }\n    }\n\n    function getOrders(\n        bytes32 ticker,\n        Side side)\n        external\n        view\n        returns(Order[] memory)\n        {\n            return orderBook[ticker][uint(side)];\n        }\n\n    function getTokens(\n    )\n        external\n        view\n        returns (Token[] memory)\n        {\n            Token[] memory _tokens = new Token[](tokenList.length);\n            for(uint i = 0; i < tokenList.length - 1; i++){\n                _tokens[i] = Token(\n                    tokens[tokenList[i]].ticker,\n                    tokens[tokenList[i]].tokenAddress\n                );\n\n            }\n            return _tokens;\n        }\n    \n    modifier tokenExists(bytes32 ticker){\n        require(tokens[ticker].tokenAddress != address(0), \n        'this token does not exist');\n        _;\n    }\n\n    modifier tokenIsNotDai(bytes32 ticker){\n        require(ticker != DAI,\n        'can not trade DAI');\n        _;\n    }  \n}\n\n",
  "sourcePath": "/Users/mikaelkais/projects/masterclass/dex/contracts/Dex.sol",
  "compiler": {
    "name": "solc",
    "version": "0.8.0+commit.c7dfd78e.Emscripten.clang"
  },
  "schemaVersion": "3.4.1",
  "updatedAt": "2021-06-28T13:46:03.393Z",
  "networkType": "ethereum",
  "devdoc": {
    "kind": "dev",
    "methods": {
      "owner()": {
        "details": "Returns the address of the current owner."
      },
      "renounceOwnership()": {
        "details": "Leaves the contract without owner. It will not be possible to call `onlyOwner` functions anymore. Can only be called by the current owner. NOTE: Renouncing ownership will leave the contract without an owner, thereby removing any functionality that is only available to the owner."
      },
      "transferOwnership(address)": {
        "details": "Transfers ownership of the contract to a new account (`newOwner`). Can only be called by the current owner."
      }
    },
    "version": 1
  },
  "userdoc": {
    "kind": "user",
    "methods": {},
    "version": 1
  }
}